:020000040800F2
:103800000050002059480008DD460008E546000841
:10381000FD460008054700080D47000800000000AD
:103820000000000000000000000000001547000834
:1038300021470008000000002D4700083947000814
:10384000A1480008A1480008A1480008A1480008B4
:10385000A1480008A1480008A1480008A1480008A4
:10386000A1480008A1480008A1480008A148000894
:10387000A1480008A1480008A1480008A148000884
:10388000A1480008A1480008A1480008A148000874
:1038900045470008A1480008A1480008A1480008C1
:1038A000A1480008A1480008A1480008A148000854
:1038B00059470008A1480008A1480008A14800088D
:1038C000A1480008A1480008A1480008A148000834
:1038D000A1480008A1480008A1480008A148000824
:1038E000A1480008A1480008A14800080000000005
:1038F00000000000000000000000000000000000C8
:0C39000000000000000000005FF808F16B
:10390C0010B5054C237833B9044B13B10448AFF30D
:10391C0000800123237010BD100000200000000067
:10392C004090000808B5034B1BB103490348AFF3A3
:10393C00008008BD0000000014000020409000082A
:10394C0080B582B000AF786039600D4A7B68136037
:10395C000C4A3B6813600A4B1B68184601F0E1FFE8
:10396C00074B1B680221184602F043FA054B1B68F3
:10397C00184604F0D7FE012318460837BD4680BD13
:10398C002C0000203000002080B582B000AF7860A1
:10399C00064B1B687A689A4203D100F087FD00F051
:1039AC005FF800BF0837BD4680BD00BF3000002067
:1039BC0080B582B000AF78600A4B1B687A689A4277
:1039CC000CD1084B1868084B084A002102F0F0F89B
:1039DC00064B1B680449184600F00AF800BF08376C
:1039EC00BD4680BD2C000020740000205800002033
:1039FC0080B586B000AF786039607B68012B05D04C
:103A0C007B6840F20222934206D01DE03B681B7893
:103A1C00184600F091F81AE007F10C03184601F073
:103A2C0013F807F10C0308223968184600F076FFEA
:103A3C003B7B002B0AD17B7B002B07D1064B074A23
:103A4C001A6002F044FD01E0FF2301E000BF0123F6
:103A5C0018461837BD4680BD00000020CABACABA45
:103A6C0080B500AF2B4B00229A602A4B0022DA6003
:103A7C00294B1B68184602F067F80346002B46D00A
:103A8C00264B1B785A1CD1B2244A1170022B1ED023
:103A9C00022B28DC002B02D0012B0CD023E01D4B79
:103AAC0003221A601B4B08221A6108221C491D486C
:103ABC0001F020F81CE0174B04221A60154B012270
:103ACC001A6108221849174801F06CF810E0114BE4
:103ADC0005221A600F4B08221A610822134911485B
:103AEC0001F085F804E00D4B00221A7001230FE061
:103AFC00094B18680E4B0B4A064901F056FF03465A
:103B0C00002B04D0012208210A4802F05DFF01239A
:103B1C00184680BD340000202C0000207C000020C2
:103B2C00800000204C000020840000208600002033
:103B3C00540000200008014080B584B002AF034659
:103B4C00FB71FB79013B052B30D801A252F823F015
:103B5C00753B00088B3B0008B93B0008B93B0008DB
:103B6C00AD3B0008A13B0008184B9B681A46184B4C
:103B7C009A60164B5B681A46154B5A6018E0134B4B
:103B8C009B681A46124B5A61104B5B681A46104BD5
:103B9C001A610DE00D4B1B681A460D4B1A6007E0BD
:103BAC000A4B1B681A460A4BDA6001E0002309E055
:103BBC004FF4FA7300931C23054A0021054800F0CA
:103BCC007BFA012318460837BD4680BDE80100206A
:103BDC00CC010020B401002080B584B000AFF860A7
:103BEC000B467A60FB72FB681B68002B11D0FB7ACA
:103BFC00002B03D0FB6800221A6012E001F088F859
:103C0C000246FB681B68D31A7A689A4209D80023CB
:103C1C0008E0FB7A002B04D101F07AF80246FB682D
:103C2C001A60012318461037BD4680BD80B487B09A
:103C3C0000AFF860B9607A603B60FA68BB689A4282
:103C4C0001DA3B6816E0FA687B689A4201DD3B6A50
:103C5C0010E0FA68BB68D31A396A3A688A1A03FB0F
:103C6C0002F27968BB68CB1A92FBF3F33A681344FF
:103C7C007B617B6918461C37BD4680BC70470000D1
:103C8C0080B584B000AF3B1D00221A605A609A6068
:103C9C002E4B2F4A1A602D4B4FF480729A602B4B8F
:103CAC0001221A73294B00221A75284B4FF46022FB
:103CBC00DA61264B00225A60244B04221A612348F5
:103CCC0001F054F80346002B01D000F099FB0623B9
:103CDC007B600123BB600023FB603B1D19461B4826
:103CEC0001F016FA0346002B01D000F089FB0723E4
:103CFC007B600223BB603B1D1946144801F008FA97
:103D0C000346002B01D000F07BFB08237B600323D0
:103D1C00BB603B1D19460D4801F0FAF90346002B18
:103D2C0001D000F06DFB09237B600423BB603B1DBD
:103D3C001946064801F0ECF90346002B01D000F0BF
:103D4C005FFB00BF1037BD4680BD00BF8800002060
:103D5C000024014080B58AB000AF786007F11803E9
:103D6C0000221A605A609A60DA607B681B68334ADA
:103D7C0093425FD1324B9B69314A43F40073936198
:103D8C002F4B9B6903F400737B617B692C4B9B6904
:103D9C002B4A43F004039361294B9B6903F0040302
:103DAC003B613B69264B9B69254A43F008039361B1
:103DBC00234B9B6903F00803FB60FB68C023BB61CA
:103DCC000323FB6107F1180319461E4802F078FC27
:103DDC000323BB610323FB6107F1180319461A483F
:103DEC0002F06EFC194B1A4A1A60184B00225A60EA
:103DFC00164B00229A60154B8022DA60134B4FF45D
:103E0C0000721A61114B4FF400625A610F4B202261
:103E1C009A610E4B0022DA610C4802F069FB0346F2
:103E2C00002B01D000F0ECFA7B68084A1A62074AB2
:103E3C007B68536200BF2837BD4680BD002401401B
:103E4C000010024000080140000C0140B8000020A6
:103E5C000800024080B58AB000AF254B254A1A6095
:103E6C00234B04225A60224B00229A60204B4FF0C5
:103E7C008072DA601E4B4FF4A0221A611C4B002298
:103E8C005A611B4B00221A76194B01225A76184B99
:103E9C0000229A76164B0022DA76154B00221A77FE
:103EAC00134B00225A77124801F02CFB0346002BCF
:103EBC0001D000F0A5FA01233B6200237B610023B3
:103ECC003B6100233B6000237B600023BB6000232D
:103EDC00FB600023BB610123FB6100237B623B463B
:103EEC001946034801F054FC00BF2837BD4680BD7D
:103EFC00FC0000200064004080B588B000AF786002
:103F0C0007F1100300221A605A609A60DA607B682D
:103F1C001B681C4A934231D11B4BDB691A4A43F094
:103F2C000073D361184BDB6903F00073FB60FB6813
:103F3C00154B9B69144A43F004039361124B9B6924
:103F4C0003F00403BB60BB684FF400633B610023C8
:103F5C007B610023BB6107F1100319460B4802F08B
:103F6C00AFFB4FF480533B6102237B610323FB6166
:103F7C0007F110031946054802F0A2FB00BF2037D9
:103F8C00BD4680BD006400400010024000080140A6
:103F9C0080B483B000AF084B5B69074A43F0010360
:103FAC005361054B5B6903F001037B607B6800BFC9
:103FBC000C37BD4680BC70470010024080B582B003
:103FCC0000AF7860786800F0ADFE00BF0837BD46E2
:103FDC0080BD80B582B000AF786002E00120FFF7B1
:103FEC00EDFF7B685B79002BF8D17B6801225A715D
:103FFC0000BF0837BD4680BD80B483B000AF786089
:10400C007B6800225A7100BF0C37BD4680BC7047DC
:10401C0080B586B000AFF860B9601346FB71002321
:10402C00FB75FB68002B16D0BB68002B13D0FB680C
:10403C00BA681A60FB68FA791A71FB681868FB6831
:10404C001B7919466423022203F07CF90346002BEA
:10405C0001D10123FB75FB7D18461837BD4680BD89
:10406C0090B58BB004AFF860B9607A603B60F868CB
:10407C00FFF7AFFF0023FB75FB681868FB681B7923
:10408C001C46BB6899B23B689BB2BA6A0292019318
:10409C007B68009301230A46214602F0EBFE03469F
:1040AC00002B01D10123FB75F868FFF7A5FFFB7D01
:1040BC0018461C37BD4690BD80B58AB004AFF86079
:1040CC00B9607A603B60F868FFF783FF0023FB75EB
:1040DC0000F01EFE3861BB689BB203F007039BB275
:1040EC00C3F10803BB82BB8A3A689A4201D23B688F
:1040FC00BB82FB681868FB681B791946BB689AB2CF
:10410C003B6A0293BB8A01937B680093012302F004
:10411C00B7FD0346002B1DD10A20FFF74FFFBB8ACA
:10412C003A68D31A3B60BB8A7A6813447B60BB8ABB
:10413C00BA681344BB603B68002B02D10123FB75AA
:10414C000BE000F0E5FD02463B69D31A3A6A9A424D
:10415C0002D9C0E700BF00E000BFF868FFF74CFFD2
:10416C00FB7D18461837BD4680BD000080B588B071
:10417C0000AF07F1100300221A605A609A60DA60EF
:10418C001D4B9B691C4A43F0200393611A4B9B699E
:10419C0003F02003FB60FB68174B9B69164A43F046
:1041AC0004039361144B9B6903F00403BB60BB686D
:1041BC00114B9B69104A43F0080393610E4B9B69AA
:1041CC0003F008037B607B68002218210B4802F087
:1041DC00FBFB18233B6101237B610023BB610223A2
:1041EC00FB6107F110031946044802F069FA00BF9D
:1041FC002037BD4680BD00BF0010024000080140C2
:10420C0080B500AF124B134A1A60114B124A5A6018
:10421C000F4B00229A600E4B0022DA600C4B4FF4CD
:10422C0080421A610A4B00225A61094B00229A61A2
:10423C00074B0022DA61064B00221A62044802F096
:10424C00DBFB0346002B01D000F0DAF800BF80BD89
:10425C006001002000540040801A060080B588B030
:10426C0000AF786007F1100300221A605A609A6060
:10427C00DA607B681B68154A934223D1144B9B6907
:10428C00134A43F008039361114B9B6903F0080335
:10429C00FB60FB68C0233B6112237B610323FB6142
:1042AC0007F1100319460B4802F00AFA084BDB69B8
:1042BC00074A43F40013D361054BDB6903F4001385
:1042CC00BB60BB6800BF2037BD4680BD00540040BA
:1042DC0000100240000C014080B500AF00F0C0FCA3
:1042EC0000F026F8FFF742FFFFF752FEFFF7C8FC7D
:1042FC00FFF7B0FD00F03AFAFFF782FF00F073F819
:10430C00A02206490648FFF783FE064800F086F80F
:10431C0005490648FFF714FB00BFFDE760010020CC
:10432C00B401002088000020F8010020FC000020CF
:10433C0080B594B000AF07F128032822002118465D
:10434C0004F04BFE07F1140300221A605A609A60C5
:10435C00DA601A613B1D00221A605A609A60DA60BA
:10436C000123BB624FF48033FB6200233B630123C8
:10437C00BB6302237B644FF48033BB644FF4002394
:10438C00FB6407F12803184603F0BEFC0346002B20
:10439C0001D000F035F80F237B610223BB610023B1
:1043AC00FB6100233B624FF480637B6207F11403D3
:1043BC000121184603F02AFF0346002B01D000F020
:1043CC001FF802237B604FF48043FB603B1D1846B3
:1043DC0004F096F80346002B01D000F011F800BF52
:1043EC005037BD4680BD80B500AF0022012114209E
:1043FC0002F043F8142002F05CF800BF80BD00000E
:10440C0080B500AF01221021034802F0DDFA72B62C
:10441C0000BF00BFFDE700BF0008014080B584B0BD
:10442C0002AF78601D4A7B6813604FF4FA730093F7
:10443C001C231B4A00211B48FFF712FE184B1B7E46
:10444C00012B20D0164B4FF48052DA60144B4FF4F2
:10445C0080521A61124B4FF480525A61104B002259
:10446C001A600F4B00225A600D4B00229A600C4BC5
:10447C0001221A764FF4FA7300931C23084A002188
:10448C000848FFF719FE054B1B680422064918461D
:10449C0000F044FD00BF0837BD4680BDBC010020C4
:1044AC00CC010020B4010020E801002080B582B0CE
:1044BC0002AF664BD86832230093002340F6656246
:1044CC0040F29911FFF7B2FB0346DAB2604B1A7156
:1044DC005E4B98685F4B9B6819465E4B5B691A464E
:1044EC00FF2300930023FFF7A1FB0346DAB2584BDE
:1044FC005A70564B5868574B5B681946554B1B699D
:10450C001A46FF2300930023FFF790FB0346DAB211
:10451C004F4B1A704D4B18684E4B1B6819464D4B40
:10452C00DB681A461E2300936FF01D03FFF77EFB1A
:10453C0003461AB2464BDA80454B1B781A46444B5D
:10454C005B78D31A13F1190F09DB414B1B781A4610
:10455C003F4B5B78D31A192B01DC012300E00023BD
:10456C00DBB2642219463C48FFF736FB0346002BAE
:10457C000CBF01230023DBB21A46384B1A70334BA5
:10458C005B681A46334B5B68C83B9A4223D92F4B66
:10459C009B681A462F4B9B68C83B9A421BD92B4BE6
:1045AC00DB68D12B17DD294B5B681A46294B1B693D
:1045BC00C8339A420FD2254B9B681A46254B5B6930
:1045CC00C8339A4207D2214BDB6840F62D729342D6
:1045DC0001DC012300E00023DBB24FF4FA72194630
:1045EC001F48FFF7F9FA0346002B0CBF01230023E9
:1045FC00DBB21A461B4B1A70184B1B78002B03D1DD
:10460C00184B1B78002B01D0012300E00023DAB2F9
:10461C000F4BDA700E4BDB78002B0AD10C4B5B780E
:10462C001A460B4B1B781344DA0F13445B10DBB2A6
:10463C0000E00023064A9370054BDB781A460821EC
:10464C00094802F0C1F900BFBD4680BDE801002059
:10465C0080000020CC010020C4010020C9010020F2
:10466C00C0010020C80100200008014080B485B0C2
:10467C0000AF154B9B69144A43F001039361124B35
:10468C009B6903F00103BB60BB680F4BDB690E4AEF
:10469C0043F08053D3610C4BDB6903F080537B6098
:1046AC007B680A4B5B68FB60FB6823F0E063FB6094
:1046BC00FB6843F00073FB60044AFB68536000BF67
:1046CC001437BD4680BC704700100240000001400A
:1046DC0080B400AF00BFFDE780B500AF0122102110
:1046EC00024802F071F900BFFDE700BF000801406D
:1046FC0080B400AF00BFFDE780B400AF00BFFDE7A2
:10470C0080B400AF00BFFDE780B400AF00BFBD4672
:10471C0080BC704780B400AF00BFBD4680BC704702
:10472C0080B400AF00BFBD4680BC704780B500AF01
:10473C0000F0DCFA00BF80BD80B500AF024801F08C
:10474C007DFB00BF80BD00BFFC00002080B500AF2A
:10475C00024804F039F800BF80BD00BFF80100200A
:10476C0080B400AF00BFBD4680BC704780B586B03A
:10477C0000AF07F1080300221A605A609A60DA60F1
:10478C003B4600221A605A601D4B4FF080421A6063
:10479C001B4B00225A601A4B00229A60184B4FF6A2
:1047AC00FF12DA60164B00221A61154B00229A6137
:1047BC00134803F05BFF0346002B01D0FFF720FEEC
:1047CC004FF48053BB6007F1080319460C4804F002
:1047DC0023F90346002B01D0FFF712FE00233B60A8
:1047EC0000237B603B461946054804F07DFB0346DD
:1047FC00002B01D0FFF704FE00BF1837BD4680BD6B
:10480C00F801002080B584B000AF78607B681B682D
:10481C00B3F1804F13D10C4BDB690B4A43F001030E
:10482C00D361094BDB6903F00103FB60FB680022D9
:10483C0001211C2001F021FE1C2001F03AFE00BFDA
:10484C001037BD4680BD00BF001002400C480D491A
:10485C000D4A002302E0D458C4500433C4188C42CF
:10486C00F9D30A4A0A4C002301E013600432A24235
:10487C00FBD3FFF775FF04F0B9FBFFF72DFD704775
:10488C0004000020100000208C9000081000002074
:10489C00B0020020FEE780B483B000AF0346FB718A
:1048AC000B46BB7113467B71FA797B791340DBB2F3
:1048BC001A46BB7902FA03F318460C37BD4680BC86
:1048CC00704780B483B000AF0346FB710B46BB71DD
:1048DC0013467B71FA797B791340DBB21A46BB79AC
:1048EC0042FA03F3DBB218460C37BD4680BC704766
:1048FC0080B483B000AF0346FB710B46BB7113460B
:10490C007B71FA797B791340DBB21A46BB7922FAB8
:10491C0003F318460C37BD4680BC704780B584B095
:10492C0000AFF860B9607A607B68072B02D86FF033
:10493C00150384E0BB681B780F2200211846FFF793
:10494C00C0FF03461A46FB681A70BB681B78F0223E
:10495C0004211846FFF7B5FF03461A46FB685A7048
:10496C00FB681B78032B68D801A252F823F000BF18
:10497C00474A00088D490008474A0008474A000882
:10498C00BB6801331B78FF2200211846FFF7B0FFEC
:10499C000246FB685A60BB6802331B78FF22082171
:1049AC001846FFF778FF0246FB685B681A43FB6802
:1049BC005A60BB6803331B78FF2210211846FFF79F
:1049CC006AFF0246FB685B681A43FB685A60BB6867
:1049DC0004331B78FF2218211846FFF75CFF0246B0
:1049EC00FB685B681A43FB685A60BB6805331B782D
:1049FC00FF2200211846FFF77BFF0246FB689A60F6
:104A0C00BB6806331B78FF2208211846FFF743FFCB
:104A1C000246FB689B681A43FB689A60BB680733C5
:104A2C001B78FF2210211846FFF735FF0246FB6862
:104A3C009B681A43FB689A6000E000BF002318468D
:104A4C001037BD4680BD00BF80B582B000AF786026
:104A5C007B68002B02D14FF0FF3305E00C220021C4
:104A6C00786804F0BAFA002318460837BD4680BDB2
:104A7C0080B483B000AF0346FB710B46BB71134689
:104A8C007B71FA79BB7902FA03F3DAB27B791340C2
:104A9C00DBB218460C37BD4680BC704780B483B07F
:104AAC0000AF0346FB800B467B7113463B71FA88C3
:104ABC007B7902FA03F3DAB23B791340DBB2184686
:104ACC000C37BD4680BC704780B483B000AF034642
:104ADC00FB800B467B7113463B71FA887B7942FA5B
:104AEC0003F3DAB23B791340DBB218460C37BD4600
:104AFC0080BC704780B584B000AFF860B9607A6054
:104B0C007B68072B02D86FF0150347E008220021C1
:104B1C00F86804F062FABB681B78FF220021184683
:104B2C00FFF7A6FF03461A46FB681B781343DAB25D
:104B3C00FB681A70BB685B78FF2200211846FFF7F0
:104B4C0097FF03461946FB6801331A78FB6801335B
:104B5C000A43D2B21A70BB689B78FF220021184618
:104B6C00FFF786FF03461946FB6802331A78FB6889
:104B7C0002330A43D2B21A70BB68DB78FF220021E1
:104B8C001846FFF775FF03461946FB6803331A787E
:104B9C00FB6803330A43D2B21A7008231846103745
:104BAC00BD4680BD80B584B000AFF860B9607A6056
:104BBC007B68002B02D16FF0150314E00122002159
:104BCC00F86804F00AFABB681B78FF22002118462B
:104BDC00FFF74EFF03461A46FB681B781343DAB205
:104BEC00FB681A70012318461037BD4680BD80B58E
:104BFC0086B000AFF860B9607A607B68072B02D88A
:104C0C006FF0150327E008220021F86804F0E5F99D
:104C1C00BB68B3F90030FB82FB8AFF2200211846E7
:104C2C00FFF73CFF03461A46FB681B781343DAB2C6
:104C3C00FB681A70FB8AFF2208211846FFF744FF15
:104C4C0003461946FB6801331A78FB6801330A43A3
:104C5C00D2B21A70082318461837BD4680BD000022
:104C6C0080B500AF084B1B68074A43F01003136074
:104C7C00032001F0F7FB002000F008F8FFF7F6FC2A
:104C8C000023184680BD00BF0020024080B582B0D2
:104C9C0000AF7860124B1A68124B1B7819464FF410
:104CAC007A73B3FBF1F3B2FBF3F3184601F013FC88
:104CBC000346002B01D001230EE07B680F2B0AD892
:104CCC00002279684FF0FF3001F0D7FB064A7B6871
:104CDC001360002300E0012318460837BD4680BD51
:104CEC00040000200C0000200800002080B400AF5D
:104CFC00054B1B781A46054B1B681344034A13607B
:104D0C0000BFBD4680BC70470C000020AC020020E8
:104D1C0080B400AF024B1B681846BD4680BC704780
:104D2C00AC02002080B584B000AF7860FFF7F0FFD4
:104D3C00B8607B68FB60FB68B3F1FF3F05D00A4BA2
:104D4C001B781A46FB681344FB6000BFFFF7E0FFBB
:104D5C000246BB68D31AFA689A42F7D800BF00BF64
:104D6C001037BD4680BD00BF0C00002080B586B05A
:104D7C0000AF78600023FB7500233B610023BB6010
:104D8C000023FB607B68002B01D10123BEE07B6814
:104D9C009B68002B7B689B6A002B09D17B680022E7
:104DAC00DA627B68002283F824207868FEF7D2FF51
:104DBC00786800F0FFFA0346FB757B689B6A03F08A
:104DCC001003002B40F09980FB7D002B40F0958068
:104DDC007B689B6A23F4885323F0020343F002029E
:104DEC007B689A627B685A687B68DB691A437B68CC
:104DFC001B7B5B001343BA681343BB607B689B68E7
:104E0C00B3F5807F03D07B689B68012B02D14FF4F4
:104E1C00807300E000233A6913433B617B681B7D80
:104E2C00012B19D17B681B7B002B09D17B689B69FB
:104E3C00013B5A033B69134343F400633B610BE0B2
:104E4C007B689B6A43F020027B689A627B68DB6A12
:104E5C0043F001027B68DA627B681B685B6823F4B1
:104E6C0069417B681B683A690A435A607B681B6816
:104E7C009A68284B13407A681268B9680B439360A0
:104E8C007B689B68B3F5807F03D07B689B68012BA4
:104E9C0004D17B681B69013B1B05FB607B681B68AD
:104EAC00DB6A23F470017B681B68FA680A43DA62D8
:104EBC007B681B689A68184B1340BA689A420BD1EE
:104ECC007B680022DA627B689B6A23F0030343F061
:104EDC0001027B689A6218E07B689B6A23F01203DC
:104EEC0043F010027B689A627B68DB6A43F0010234
:104EFC007B68DA620123FB7507E07B689B6A43F0F1
:104F0C0010027B689A620123FB75FB7D18461837EB
:104F1C00BD4680BDFDF7E1FFFE0E1FFF80B586B0DC
:104F2C0000AFF860B9607A600023FB75FB681B6802
:104F3C00644A934204D0FB681B68634A934206D1CF
:104F4C00604B5B6803F47023002B40F0B380FB686C
:104F5C0093F82430012B01D10223AEE0FB6801222F
:104F6C0083F82420F86800F0CBF90346FB75FB7D31
:104F7C00002B40F09A80FB689B6A23F4706323F04B
:104F8C00010343F48072FB689A62FB681B684E4A0B
:104F9C00934205D14B4B5B6803F47023002B15D166
:104FAC00FB689B6A23F48012FB689A62FB681B689F
:104FBC005B6803F48063002B26D0FB689B6A23F4A8
:104FCC00405343F48052FB689A621DE0FB689B6A75
:104FDC0043F48012FB689A62FB681B68394A93425F
:104FEC0004D0FB681B68384A93420DD1354B5B6883
:104FFC0003F48063002B07D0FB689B6A23F44053B7
:10500C0043F48052FB689A62FB689B6A03F48053FA
:10501C00002B06D0FB68DB6A23F00602FB68DA6221
:10502C0002E0FB680022DA62FB68002283F824208D
:10503C00FB681B6A254A9A62FB681B6A244ADA627F
:10504C00FB681B6A234A1A63FB681B686FF0020239
:10505C001A60FB681B689A68FB681B6842F48072D4
:10506C009A60FB68186AFB681B684C331946BA686F
:10507C007B6801F097FAFB681B689B6803F460235C
:10508C00B3F5602F08D1FB681B689A68FB681B6836
:10509C0042F4A0029A600FE0FB681B689A68FB68F8
:1050AC001B6842F480129A6006E0FB68002283F8C9
:1050BC00242001E00123FB75FB7D18461837BD4603
:1050CC0080BD00BF0024014000280140435400086B
:1050DC00BF540008DB54000880B483B000AF786084
:1050EC0000BF0C37BD4680BC704780B483B000AFA6
:1050FC00786000BF0C37BD4680BC704780B483B06D
:10510C0000AF786000BF0C37BD4680BC7047000014
:10511C0080B485B000AF786039600023FB73002346
:10512C00BB607B6893F82430012B01D10223DCE0B7
:10513C007B68012283F824203B685B68062B1CD813
:10514C007B681B68596B3B685A6813469B00134479
:10515C00053B1F2202FA03F3DB4319403B68186836
:10516C003B685A6813469B001344053B00FA03F254
:10517C007B681B680A435A633CE03B685B680C2BFA
:10518C001CD87B681B68196B3B685A6813469B00DC
:10519C001344233B1F2202FA03F3DB4319403B6801
:1051AC0018683B685A6813469B001344233B00FA6B
:1051BC0003F27B681B680A431A631BE07B681B685D
:1051CC00D96A3B685A6813469B001344413B1F2223
:1051DC0002FA03F3DB4319403B6818683B685A68D2
:1051EC0013469B001344413B00FA03F27B681B6897
:1051FC000A43DA623B681B68092B1CD97B681B6865
:10520C00D9683B681A6813465B0013441E3B07229F
:10521C0002FA03F3DB4319403B6898683B681A6851
:10522C0013465B0013441E3B00FA03F27B681B68B9
:10523C000A43DA6019E07B681B6819693B681A68D5
:10524C0013465B001344072202FA03F3DB431940B5
:10525C003B6898683B681A6813465B00134400FA75
:10526C0003F27B681B680A431A613B681B68102BAE
:10527C0003D03B681B68112B32D17B681B681D4A1D
:10528C00934225D17B681B689B6803F40003002BB9
:10529C0026D17B681B689A687B681B6842F4000205
:1052AC009A603B681B68102B1AD1134B1B68134A6E
:1052BC00A2FB03239A0C13469B0013445B00BB60B8
:1052CC0002E0BB68013BBB60BB68002BF9D107E077
:1052DC007B689B6A43F020027B689A620123FB7314
:1052EC007B68002283F82420FB7B18461437BD46CC
:1052FC0080BC7047002401400400002083DE1B4367
:10530C0080B584B000AF78600023FB600023BB60E5
:10531C007B681B689B6803F00103012B40D07B6802
:10532C001B689A687B681B6842F001029A601F4BED
:10533C001B681F4AA2FB03239B0CBB6002E0BB68EB
:10534C00013BBB60BB68002BF9D1FFF7E1FCF860B7
:10535C001FE0FFF7DDFC0246FB68D31A022B18D9BD
:10536C007B681B689B6803F00103012B11D07B68E1
:10537C009B6A43F010027B689A627B68DB6A43F09D
:10538C0001027B68DA627B68002283F82420012307
:10539C0007E07B681B689B6803F00103012BD8D1E5
:1053AC00002318461037BD4680BD00BF0400002006
:1053BC0083DE1B4380B584B000AF78600023FB60B4
:1053CC007B681B689B6803F00103012B2ED17B6863
:1053DC001B689A687B681B6822F001029A60FFF7D1
:1053EC0097FCF8601BE0FFF793FC0246FB68D31AAE
:1053FC00022B14D97B681B689B6803F00103012BFB
:10540C000DD17B689B6A43F010027B689A627B68C3
:10541C00DB6A43F001027B68DA62012307E07B68F8
:10542C001B689B6803F00103012BDCD0002318469A
:10543C001037BD4680BD80B584B000AF78607B6806
:10544C005B6AFB60FB689B6A03F05003002B27D15F
:10545C00FB689B6A43F40072FB689A62FB681B68EA
:10546C009B6803F46023B3F5602F15D1FB681B7B9D
:10547C00002B11D1FB689B6A23F48072FB689A6243
:10548C00FB689B6A03F48053002B05D1FB689B6A75
:10549C0043F00102FB689A62F868FFF71DFE04E016
:1054AC00FB681B6A1B6B7868984700BF1037BD46BA
:1054BC0080BD80B584B000AF78607B685B6AFB60B0
:1054CC00F868FFF712FE00BF1037BD4680BD80B5EF
:1054DC0084B000AF78607B685B6AFB60FB689B6A9A
:1054EC0043F04002FB689A62FB68DB6A43F00402FB
:1054FC00FB68DA62F868FFF701FE00BF1037BD46A3
:10550C0080BD000080B584B000AF78607B68002B54
:10551C0001D101231CE17B6893F82030DBB2002B16
:10552C0031D17B688C4A1A647B688C4A5A647B68DC
:10553C008B4A9A647B688B4ADA647B688A4A9A62E3
:10554C007B688A4ADA627B68894A1A637B68894A73
:10555C005A637B68884A9A637B68884ADA637B68FB
:10556C00874A1A657B68874A5A657B68864A9A65BA
:10557C007B68DB6D002B02D17B68844ADA657B6823
:10558C00DB6D786898477B681B681A687B681B68BA
:10559C0042F001021A60FFF7BBFBF86012E0FFF764
:1055AC00B7FB0246FB68D31A0A2B0BD97B685B6AE4
:1055BC0043F400327B685A627B68052283F8202012
:1055CC000123C5E07B681B685B6803F00103002BBB
:1055DC00E5D07B681B681A687B681B6822F00202A6
:1055EC001A60FFF795FBF86012E0FFF791FB02469B
:1055FC00FB68D31A0A2B0BD97B685B6A43F4003225
:10560C007B685A627B68052283F8202001239FE087
:10561C007B681B685B6803F00203002BE5D17B6899
:10562C001B7E012B08D17B681B681A687B681B6882
:10563C0042F080021A6007E07B681B681A687B687E
:10564C001B6822F080021A607B685B7E012B08D1FC
:10565C007B681B681A687B681B6842F040021A6002
:10566C0007E07B681B681A687B681B6822F04002A5
:10567C001A607B689B7E012B08D17B681B681A68BB
:10568C007B681B6842F020021A6007E07B681B688D
:10569C001A687B681B6822F020021A607B68DB7E2C
:1056AC00012B08D17B681B681A687B681B6822F089
:1056BC0010021A6007E07B681B681A687B681B681D
:1056CC0042F010021A607B681B7F012B08D17B68AB
:1056DC001B681A687B681B6842F008021A6007E0B6
:1056EC007B681B681A687B681B6822F008021A60CA
:1056FC007B685B7F012B08D17B681B681A687B6811
:10570C001B6842F004021A6007E07B681B681A6889
:10571C007B681B6822F004021A607B689A687B68BD
:10572C00DB681A437B681B691A437B685B6942EA36
:10573C0003017B685B685A1E7B681B680A43DA614D
:10574C007B6800225A627B68012283F820200023A8
:10575C0018461037BD4680BDBD3900083F620008B1
:10576C005162000863620008D3610008E56100081B
:10577C00F7610008096200081B6200082D6200082E
:10578C00756200088762000899620008053F0008EE
:10579C0080B487B000AF786039607B681B687B6130
:1057AC007B6893F82030FB74FB7C012B03D0FB7CD3
:1057BC00022B40F0AA807B69D3F8003243F001023F
:1057CC007B69C3F800223B685B6903F01F0301226D
:1057DC0002FA03F3FB607B69D3F81C22FB68DB4302
:1057EC001A407B69C3F81C223B68DB69002B23D170
:1057FC007B69D3F80C22FB68DB431A407B69C3F846
:10580C000C223B68DB6819043B685B689BB23A6806
:10581C00526919437B69483243F832103B689B68E4
:10582C0019043B681B689AB23B685B690A43796947
:10583C004833DB000B445A603B68DB69012B22D1F7
:10584C007B69D3F80C22FB681A437B69C3F80C22E2
:10585C003B681B6819043B685B689BB23A685269E9
:10586C0019437B69483243F832103B689B68190432
:10587C003B68DB689AB23B685B690A4379694833D9
:10588C00DB000B445A603B689B69002B09D17B6998
:10589C00D3F80422FB68DB431A407B69C3F804226B
:1058AC0007E07B69D3F80422FB681A437B69C3F8D1
:1058BC0004223B681B69002B09D17B69D3F81422A5
:1058CC00FB68DB431A407B69C3F8142207E07B6951
:1058DC00D3F81422FB681A437B69C3F814223B6883
:1058EC001B6A012B07D17B69D3F81C22FB681A4376
:1058FC007B69C3F81C227B69D3F8003223F00102C8
:10590C007B69C3F80022002306E07B685B6A43F4E2
:10591C0080227B685A62012318461C37BD4680BC26
:10592C00704780B584B000AF78607B6893F8203006
:10593C00DBB2012B2ED17B68022283F820207B68FE
:10594C001B681A687B681B6822F001021A60FFF75B
:10595C00DFF9F86012E0FFF7DBF90246FB68D31AB7
:10596C000A2B0BD97B685B6A43F400327B685A6262
:10597C007B68052283F82020012312E07B681B68DA
:10598C005B6803F00103002BE5D17B6800225A62AF
:10599C00002306E07B685B6A43F400227B685A6252
:1059AC00012318461037BD4680BD80B489B000AFC6
:1059BC00F860B9607A603B60FB6893F82030FB7745
:1059CC00FB681B689B68BB61FB7F012B03D0FB7FD3
:1059DC00022B40F0AD80BB6903F08063002B0AD131
:1059EC00BB6903F00063002B05D1BB6903F0805346
:1059FC00002B00F09580BB691B0E03F003037B6149
:105A0C0001227B699A403B681A60BB689B68002B3B
:105A1C000DD1BB681B685A05BB68DB68F96809685F
:105A2C001A437B6918331B010B441A600FE0BB68E7
:105A3C005B68DA00BB689B681A43BB68DB68F96873
:105A4C0009681A437B6918331B010B441A60FB6805
:105A5C001968BB681A697B6918331B010B44043342
:105A6C001A60BB681B7D012B11D1FB681A687B691E
:105A7C0018331B01134404331B68FA68116843F490
:105A8C0080727B6918331B010B4404331A607B68EA
:105A9C0007331B781A067B6806331B781B041A43E2
:105AAC007B6805331B781B0213437A680432127827
:105ABC001046FA68116843EA00027B691B010B442B
:105ACC0003F5C6731A607B6803331B781A067B6870
:105ADC0002331B781B041A437B6801331B781B02AF
:105AEC0013437A6812781046FA68116843EA000288
:105AFC007B691B010B4403F5C4731A60FB681A68BD
:105B0C007B6918331B0113441B68FA68116843F056
:105B1C0001027B6918331B010B441A6000230EE051
:105B2C00FB685B6A43F40012FB685A62012306E0CF
:105B3C00FB685B6A43F48022FB685A6201231846B7
:105B4C002437BD4680BC704780B485B000AF786008
:105B5C000023FB607B6893F82030FB72FB7A012BEF
:105B6C0002D0FB7A022B1DD17B681B689B6803F06B
:105B7C008063002B02D0FB680133FB607B681B68E1
:105B8C009B6803F00063002B02D0FB680133FB60C1
:105B9C007B681B689B6803F08053002B02D0FB686A
:105BAC000133FB60FB6818461437BD4680BC704758
:105BBC0080B487B000AFF860B9607A603B60FB6876
:105BCC0093F82030FB75FB7D012B03D0FB7D022B62
:105BDC0040F00381BB68002B0ED1FB681B68DB68AF
:105BEC0003F00303002B16D1FB685B6A43F400122D
:105BFC00FB685A620123F7E0FB681B681B6903F022
:105C0C000303002B07D1FB685B6A43F40012FB68AB
:105C1C005A620123E8E0FB681A68BB681B331B015E
:105C2C0013441B6803F004027B689A607B689B68D2
:105C3C00002B0CD1FB681A68BB681B331B01134487
:105C4C001B685B0DC3F30A027B681A600BE0FB68F0
:105C5C001A68BB681B331B0113441B68DB0823F059
:105C6C0060427B685A60FB681A68BB681B331B0177
:105C7C0013441B6803F002027B68DA60FB681A6845
:105C8C00BB681B331B01134404331B6803F008036C
:105C9C00002B03D07B6808221A610BE0FB681A68A2
:105CAC00BB681B331B01134404331B6803F00F0246
:105CBC007B681A61FB681A68BB681B331B011344B1
:105CCC0004331B681B0ADAB27B689A61FB681A689A
:105CDC00BB681B331B01134404331B681B0C9AB2A7
:105CEC007B685A61FB681A68BB681B01134403F597
:105CFC00DC731B68DAB23B681A70FB681A68BB6805
:105D0C001B01134403F5DC731B681A0A3B6801334F
:105D1C00D2B21A70FB681A68BB681B01134403F5F6
:105D2C00DC731B681A0C3B680233D2B21A70FB6826
:105D3C001A68BB681B01134403F5DC731B681A0E4D
:105D4C003B680333D2B21A70FB681A68BB681B013C
:105D5C00134403F5DE731A683B680433D2B21A702D
:105D6C00FB681A68BB681B01134403F5DE731B68E0
:105D7C001A0A3B680533D2B21A70FB681A68BB6802
:105D8C001B01134403F5DE731B681A0C3B680633C6
:105D9C00D2B21A70FB681A68BB681B01134403F576
:105DAC00DE731B681A0E3B680733D2B21A70BB68DD
:105DBC00002B08D1FB681B68DA68FB681B6842F093
:105DCC002002DA6007E0FB681B681A69FB681B6835
:105DDC0042F020021A61002306E0FB685B6A43F480
:105DEC008022FB685A62012318461C37BD4680BCD2
:105DFC00704780B485B000AF786039607B6893F8E9
:105E0C002030FB73FB7B012B02D0FB7B022B09D1D7
:105E1C007B681B6859697B681B683A680A435A613E
:105E2C00002306E07B685B6A43F480227B685A623D
:105E3C00012318461437BD4680BC704780B58AB024
:105E4C0000AF786000237B627B681B685B693B62F8
:105E5C007B681B685B68FB617B681B689B68BB612C
:105E6C007B681B68DB687B617B681B681B693B611B
:105E7C007B681B689B69FB603B6A03F00103002B8A
:105E8C0000F08380BB6903F00103002B25D07B68F5
:105E9C001B6801229A60BB6903F00203002B04D03B
:105EAC007B689B6A7868984717E0BB6903F004032A
:105EBC00002B04D07B6A43F400637B620DE0BB696A
:105ECC0003F00803002B04D07B6A43F480537B62FD
:105EDC0003E07B685B6B78689847BB6903F480735D
:105EEC00002B26D07B681B684FF480729A60BB69CC
:105EFC0003F40073002B04D07B68DB6A7868984746
:105F0C0017E0BB6903F48063002B04D07B6A43F475
:105F1C0000537B620DE0BB6903F40063002B04D0DB
:105F2C007B6A43F480437B6203E07B689B6B7868FD
:105F3C009847BB6903F48033002B26D07B681B6821
:105F4C004FF480329A60BB6903F40033002B04D009
:105F5C007B681B6B7868984717E0BB6903F4802358
:105F6C00002B04D07B6A43F400437B620DE0BB69D9
:105F7C0003F40023002B04D07B6A43F480337B6250
:105F8C0003E07B68DB6B786898473B6A03F0080397
:105F9C00002B0CD07B6903F01003002B07D07B6A1D
:105FAC0043F400737B627B681B681022DA603B6AE7
:105FBC0003F00403002B0CD07B6903F00803002BC7
:105FCC0007D07B681B680822DA607B685B6C78689A
:105FDC0098473B6A03F00203002B0AD07B681B68CE
:105FEC00DB6803F00303002B03D07B681B6C786821
:105FFC0098473B6A03F04003002B0CD03B6903F03D
:10600C001003002B07D07B6A43F480637B627B68B0
:10601C001B6810221A613B6A03F02003002B0CD082
:10602C003B6903F00803002B07D07B681B68082230
:10603C001A617B68DB6C786898473B6A03F0100345
:10604C00002B0AD07B681B681B6903F00303002B31
:10605C0003D07B689B6C786898473B6A03F40033E9
:10606C00002B0CD0FB6903F01003002B07D07B68CE
:10607C001B6810225A607B681B6D786898473B6AD6
:10608C0003F48033002B0CD0FB6903F00803002BC6
:10609C0007D07B681B6808225A607B685B6D786848
:1060AC0098473B6A03F40043002B7BD0FB6903F059
:1060BC000403002B72D03B6A03F48073002B08D0CE
:1060CC00FB6803F00103002B03D07B6A43F0010350
:1060DC007B623B6A03F40073002B08D0FB6803F06F
:1060EC000203002B03D07B6A43F002037B623B6A02
:1060FC0003F48063002B08D0FB6803F00403002B2F
:10610C0003D07B6A43F004037B623B6A03F40063B5
:10611C00002B43D0FB6803F07003002B3ED0FB68D0
:10612C0003F07003602B2BD0602B2ED8502B22D079
:10613C00502B2AD8402B19D0402B26D8302B10D0DE
:10614C00302B22D8102B02D0202B05D01DE07B6ADF
:10615C0043F008037B6219E07B6A43F010037B6217
:10616C0014E07B6A43F020037B620FE07B6A43F010
:10617C0040037B620AE07B6A43F080037B6205E0AC
:10618C007B6A43F480737B6200E000BF7B681B6812
:10619C009A697B681B6822F070029A617B681B68A5
:1061AC0004225A607B6A002B09D07B685A6A7B6A8E
:1061BC001A437B685A627B689B6D7868984700BF6E
:1061CC002837BD4680BD80B483B000AF786000BF77
:1061DC000C37BD4680BC704780B483B000AF78608C
:1061EC0000BF0C37BD4680BC704780B483B000AF95
:1061FC00786000BF0C37BD4680BC704780B483B05C
:10620C0000AF786000BF0C37BD4680BC704780B4CF
:10621C0083B000AF786000BF0C37BD4680BC7047C0
:10622C0080B483B000AF786000BF0C37BD4680BC33
:10623C00704780B483B000AF786000BF0C37BD46A8
:10624C0080BC704780B483B000AF786000BF0C375F
:10625C00BD4680BC704780B483B000AF786000BF8F
:10626C000C37BD4680BC704780B483B000AF7860FB
:10627C0000BF0C37BD4680BC704780B483B000AF04
:10628C00786000BF0C37BD4680BC704780B483B0CB
:10629C0000AF786000BF0C37BD4680BC7047000073
:1062AC0080B485B000AF78607B6803F00703FB60B7
:1062BC000C4BDB68BB60BA684FF6FF031340BB6046
:1062CC00FB681A02BB68134343F0BF6343F400330B
:1062DC00BB60044ABB68D36000BF1437BD4680BCAA
:1062EC00704700BF00ED00E080B400AF044BDB68EA
:1062FC001B0A03F007031846BD4680BC704700BF5D
:10630C0000ED00E080B483B000AF0346FB7197F959
:10631C000730002B0BDBFB7903F01F02064997F9C2
:10632C0007305B09012000FA02F241F8232000BF7C
:10633C000C37BD4680BC704700E100E080B483B0F0
:10634C0000AF03463960FB7197F90730002B0ADB6D
:10635C003B68DAB20C4997F907301201D2B20B4400
:10636C0083F800230AE03B68DAB20849FB7903F0B2
:10637C000F03043B1201D2B20B441A7600BF0C3748
:10638C00BD4680BC704700BF00E100E000ED00E0BE
:10639C0080B489B000AFF860B9607A60FB6803F034
:1063AC000703FB61FB69C3F10703042B28BF04231C
:1063BC00BB61FB690433062B02D9FB69033B00E08C
:1063CC0000237B614FF0FF32BB6902FA03F3DA431F
:1063DC00BB681A407B699A404FF0FF317B6901FA28
:1063EC0003F3D9437B680B40134318462437BD464F
:1063FC0080BC704780B400AFBFF34F8F00BF064B1B
:10640C00DB6803F4E0620449044B1343CB60BFF335
:10641C004F8F00BF00BFFDE700ED00E00400FA0560
:10642C0080B582B000AF78607B68013BB3F1807FB0
:10643C0001D301230FE00A4A7B68013B53600F2113
:10644C004FF0FF30FFF77AFF054B00229A60044BA8
:10645C0007221A60002318460837BD4680BD00BFCE
:10646C0010E000E080B582B000AF78607868FFF78C
:10647C0017FF00BF0837BD4680BD80B586B000AFA2
:10648C000346B9607A60FB7300237B61FFF72CFF36
:10649C0078617A68B9687869FFF77AFF024697F9EC
:1064AC000F3011461846FFF749FF00BF1837BD469D
:1064BC0080BD80B582B000AF0346FB7197F9073001
:1064CC001846FFF71FFF00BF0837BD4680BD80B5DB
:1064DC0000AFFFF78FFF80B582B000AF78607868AF
:1064EC00FFF79EFF034618460837BD4680BD0000E7
:1064FC0080B485B000AF78600023FB607B68002B14
:10650C0001D1012343E07B681B681A46224B1344DC
:10651C00224AA2FB03231B099A007B681A647B683E
:10652C001F4ADA637B68022283F821207B681B6890
:10653C001B68FB60FB6823F47F5323F03003FB6084
:10654C007B685A687B689B681A437B68DB681A43D4
:10655C007B681B691A437B685B691A437B689B6980
:10656C001A437B68DB691343FA681343FB607B684F
:10657C001B68FA681A607B6800229A637B680122A8
:10658C0083F821207B68002283F820200023184602
:10659C001437BD4680BC7047F8FFFDBFCDCCCCCCCA
:1065AC000000024080B586B000AFF860B9607A6038
:1065BC003B600023FB75FB6893F82030012B01D165
:1065CC0002234BE0FB68012283F82020FB6893F840
:1065DC002130DBB2012B3AD1FB68022283F8212057
:1065EC00FB6800229A63FB681B681A68FB681B68CF
:1065FC0022F001021A603B687A68B968F86800F00A
:10660C0031F8FB68DB6A002B08D0FB681B681A6842
:10661C00FB681B6842F00E021A600FE0FB681B68F7
:10662C001A68FB681B6822F004021A60FB681B687E
:10663C001A68FB681B6842F00A021A60FB681B6848
:10664C001A68FB681B6842F001021A6005E0FB68DF
:10665C00002283F820200223FB75FB7D1846183797
:10666C00BD4680BD80B485B000AFF860B9607A607B
:10667C003B60FB681A6CFB68DB6B012101FA02F2D0
:10668C005A60FB681B683A685A60FB685B68102BA1
:10669C0008D1FB681B687A689A60FB681B68BA684B
:1066AC00DA6007E0FB681B68BA689A60FB681B68D5
:1066BC007A68DA6000BF1437BD4680BC70470000B2
:1066CC0080B48BB000AF7860396000237B6200230C
:1066DC003B6269E101227B6A02FA03F3FB613B68CE
:1066EC001B68FA691340BB61BA69FB699A4240F0B6
:1066FC0058813B685B689A4A93425ED0984A9342B1
:10670C0075D8984A934258D0964A93426FD8964A75
:10671C00934252D0944A934269D8944A93424CD0B3
:10672C00924A934263D8924A934246D0904A9342FB
:10673C005DD8122B2AD8122B59D801A252F823F06B
:10674C00C7670008A1670008B3670008F567000871
:10675C00FB670008FB670008FB670008FB67000885
:10676C00FB670008FB670008FB670008FB67000875
:10677C00FB670008FB670008FB670008FB67000865
:10678C00FB670008A9670008BD670008794A9342B7
:10679C0013D02CE03B68DB683B6229E03B68DB688C
:1067AC0004333B6224E03B68DB6808333B621FE048
:1067BC003B68DB680C333B621AE03B689B68002B40
:1067CC0002D104233B6213E03B689B68012B05D18B
:1067DC0008233B627B68FA691A6109E008233B6273
:1067EC007B68FA695A6103E000233B6200E000BF5A
:1067FC00BB69FF2B01D87B6801E07B6804337B61AC
:10680C00BB69FF2B02D87B6A9B0002E07B6A083BCA
:10681C009B003B617B691A680F213B6901FA03F30A
:10682C00DB431A40396A3B6901FA03F31A437B696B
:10683C001A603B685B6803F08053002B00F0B1805A
:10684C004D4B9B694C4A43F0010393614A4B9B6946
:10685C0003F00103BB60BB68484A7B6A9B080233A8
:10686C0052F82330FB607B6A03F003039B000F227A
:10687C0002FA03F3DB43FA681340FB607B68404A7F
:10688C00934213D07B683F4A93420DD07B683E4ABB
:10689C00934207D07B683D4A934201D1032306E023
:1068AC00042304E0022302E0012300E000237A6ABF
:1068BC0002F0030292009340FA681343FB602F49E5
:1068CC007B6A9B080233FA6841F823203B685B68BB
:1068DC0003F48013002B06D02D4B9A682C49BB690E
:1068EC0013438B6006E02A4B9A68BB69DB4328494B
:1068FC0013408B603B685B6803F40013002B06D0DD
:10690C00234BDA682249BB691343CB6006E0204B6A
:10691C00DA68BB69DB431E491340CB603B685B689C
:10692C0003F40033002B06D0194B5A681849BB6985
:10693C0013434B6006E0164B5A68BB69DB431449A2
:10694C0013404B603B685B6803F48033002B21D011
:10695C000F4B1A680E49BB6913430B6021E000BF53
:10696C000000321000003110000022100000211035
:10697C000000121000001110001002400000014035
:10698C0000080140000C01400010014000140140BF
:10699C00000401400B4B1A68BB69DB4309491340E7
:1069AC000B607B6A01337B623B681A687B6A22FA54
:1069BC0003F3002B7FF48EAE00BF00BF2C37BD4617
:1069CC0080BC70470004014080B483B000AF786095
:1069DC000B467B8013467B707B78002B03D07A8828
:1069EC007B681A6103E07B881A047B681A6100BF1C
:1069FC000C37BD4680BC704780B584B000AF786062
:106A0C007B68002B01D101232BE17B6893F83D308F
:106A1C00DBB2002B06D17B68002283F83C2078681F
:106A2C00FDF71CFC7B68242283F83D207B681B68E7
:106A3C001A687B681B6822F001021A607B681B686D
:106A4C001A687B681B6842F400421A607B681B68FA
:106A5C001A687B681B6822F400421A6001F01EFD64
:106A6C00F8607B685B68814A934207D8FB68804A70
:106A7C00934294BF01230023DBB206E0FB687D4AFE
:106A8C00934294BF01230023DBB2002B01D00123DE
:106A9C00E7E0FB68784AA2FB03239B0CBB607B6896
:106AAC001B685B6823F03F017B681B68BA680A436C
:106ABC005A607B681B681B6A23F03F017B685B682C
:106ACC006A4A934202D8BB68013309E0BB684FF4B1
:106ADC00967202FB03F3694AA2FB03239B09013361
:106AEC007A6812680B4313627B681B68DB6923F4BA
:106AFC004F4222F0FF027B685B685C498B4219D8DD
:106B0C00FB68591E7B685B685B00B1FBF3F3591C97
:106B1C0040F6FC730B40002B0AD0FB68591E7B68B7
:106B2C005B685B00B1FBF3F30133C3F30B0351E080
:106B3C0004234FE07B689B68002B11D1FB68581E27
:106B4C007B6859680B465B000B44B0FBF3F30133D5
:106B5C00C3F30B03002B0CBF01230023DBB212E0A9
:106B6C00FB68581E7B6859680B469B000B449900C8
:106B7C000B44B0FBF3F30133C3F30B03002B0CBF3B
:106B8C0001230023DBB2002B01D0012322E07B6820
:106B9C009B68002B0ED1FB68581E7B6859680B460E
:106BAC005B000B44B0FBF3F30133C3F30B0343F46F
:106BBC0000430FE0FB68581E7B6859680B469B002E
:106BCC000B4499000B44B0FBF3F30133C3F30B03F9
:106BDC0043F44043796809681343CB617B681B68B5
:106BEC001B6823F0C0017B68DA697B681B6A1A4357
:106BFC007B681B680A431A607B681B689B6823F4DC
:106C0C00034323F0FF037A6811697A68D268114351
:106C1C007A6812680B4393607B681B68DB6823F00F
:106C2C00FF017B685A697B689B691A437B681B6808
:106C3C000A43DA607B681B681A687B681B6842F041
:106C4C0001021A607B6800221A647B68202283F898
:106C5C003D207B6800221A637B68002283F83E206B
:106C6C00002318461037BD4680BD00BFA08601002A
:106C7C007F841E00FF083D0083DE1B43D34D621052
:106C8C0080B588B002AFF860084611461A46034634
:106C9C007B810B463B811346FB80FEF739F878610C
:106CAC00FB6893F83D30DBB2202B40F0D9807B6938
:106CBC000093192301226D49F86800F0EFFD03469B
:106CCC00002B01D00223CCE0FB6893F83C30012B65
:106CDC0001D10223C5E0FB68012283F83C20FB684C
:106CEC001B681B6803F00103012B07D0FB681B68B2
:106CFC001A68FB681B6842F001021A60FB681B688B
:106D0C001A68FB681B6822F400621A60FB68212277
:106D1C0083F83D20FB68402283F83E20FB6800226C
:106D2C001A64FB683A6A5A62FB68BA8C5A85FB682B
:106D3C005B8D9AB2FB681A85FB684D4ADA62F8885B
:106D4C003A8979897B690193BB6A00930346F86899
:106D5C0000F026FC0346002B52D0012381E07A6917
:106D6C00B96AF86800F0B4FE0346002B0DD0FB683E
:106D7C001B6C042B07D1FB681B681A68FB681B682B
:106D8C0042F400721A6001236BE0FB685B6A1A78AC
:106D9C00FB681B681A61FB685B6A5A1CFB685A62C9
:106DAC00FB681B8D013B9AB2FB681A85FB685B8DF7
:106DBC009BB2013B9AB2FB685A85FB681B685B6906
:106DCC0003F00403042B1BD1FB681B8D002B17D085
:106DDC00FB685B6A1A78FB681B681A61FB685B6A64
:106DEC005A1CFB685A62FB681B8D013B9AB2FB680C
:106DFC001A85FB685B8D9BB2013B9AB2FB685A8586
:106E0C00FB681B8D002BAAD17A69B96AF86800F06F
:106E1C00A7FE0346002B0DD0FB681B6C042B07D17F
:106E2C00FB681B681A68FB681B6842F400721A60E6
:106E3C00012316E0FB681B681A68FB681B6842F4A8
:106E4C0000721A60FB68202283F83D20FB68002248
:106E5C0083F83E20FB68002283F83C20002300E0EE
:106E6C00022318461837BD4680BD00BF0200100033
:106E7C000000FFFF80B58CB002AFF86008461146E9
:106E8C001A4603467B810B463B811346FB8000234D
:106E9C003B62FDF73DFF7862FB6893F83D30DBB257
:106EAC00202B40F044827B6A0093192301228249F3
:106EBC00F86800F0F3FC0346002B01D0022337E204
:106ECC00FB6893F83C30012B01D1022330E2FB68C4
:106EDC00012283F83C20FB681B681B6803F001034C
:106EEC00012B07D0FB681B681A68FB681B6842F013
:106EFC0001021A60FB681B681A68FB681B6822F4A5
:106F0C0000621A60FB68222283F83D20FB68402255
:106F1C0083F83E20FB6800221A64FB683A6B5A62C5
:106F2C00FB68BA8E5A85FB685B8D9AB2FB681A8532
:106F3C00FB68624ADA62F8883A8979897B6A01933C
:106F4C00BB6B00930346F86800F0C0FB0346002BB4
:106F5C0001D00123ECE1FB681B8D002B13D1002326
:106F6C00FB61FB681B685B69FB61FB681B689B69C9
:106F7C00FB61FB69FB681B681A68FB681B6842F4C1
:106F8C0000721A60C0E1FB681B8D012B1ED1FB68DF
:106F9C001B681A68FB681B6822F480621A6072B660
:106FAC0000BF0023BB61FB681B685B69BB61FB68AE
:106FBC001B689B69BB61BB69FB681B681A68FB6833
:106FCC001B6842F400721A6062B635E0FB681B8DD8
:106FDC00022B1ED1FB681B681A68FB681B6842F405
:106FEC0000621A6072B600BF00237B61FB681B68ED
:106FFC005B697B61FB681B689B697B617B69FB68D8
:10700C001B681A68FB681B6822F480621A6062B6FF
:10701C0012E0FB681B681A68FB681B6842F480620C
:10702C001A6000233B61FB681B685B693B61FB6872
:10703C001B689B693B613B6966E1FB681B8D032BFD
:10704C0000F21F81FB681B8D012B23D17A6AB96B6F
:10705C00F86800F0CDFD0346002B01D0012367E159
:10706C00FB681B681A69FB685B6AD2B21A70FB6812
:10707C005B6A5A1CFB685A62FB681B8D013B9AB217
:10708C00FB681A85FB685B8D9BB2013B9AB2FB686F
:10709C005A8539E1FB681B8D022B52D17B6A009318
:1070AC00BB6B00220649F86800F0F8FB0346002B86
:1070BC0008D001233CE100BF020010000000FFFFDC
:1070CC000400010072B600BFFB681B681A68FB68FD
:1070DC001B6842F400721A60FB681B681A69FB6833
:1070EC005B6AD2B21A70FB685B6A5A1CFB685A6204
:1070FC00FB681B8D013B9AB2FB681A85FB685B8DA4
:10710C009BB2013B9AB2FB685A8562B600BFFB6822
:10711C001B681A69FB685B6AD2B21A70FB685B6AFF
:10712C005A1CFB685A62FB681B8D013B9AB2FB68C8
:10713C001A85FB685B8D9BB2013B9AB2FB685A8542
:10714C00E2E07B6A0093BB6B00227B49F86800F09D
:10715C00A5FB0346002B01D00123E9E0FB681B686B
:10716C001A68FB681B6822F480621A6072B600BF52
:10717C00FB681B681A69FB685B6AD2B21A70FB6801
:10718C005B6A5A1CFB685A62FB681B8D013B9AB206
:10719C00FB681A85FB685B8D9BB2013B9AB2FB685E
:1071AC005A85664B1B68DB08654AA2FB03231A0A47
:1071BC0013469B001344DA00D31A3B623B6A013B33
:1071CC003B623B6A002B18D1FB6800221A63FB68F8
:1071DC00202283F83D20FB68002283F83E20FB68C8
:1071EC001B6C43F02002FB681A6462B600BFFB689C
:1071FC00002283F83C2001239AE0FB681B685B6942
:10720C0003F00403042BD9D1FB681B681A68FB68D4
:10721C001B6842F400721A60FB681B681A69FB68F1
:10722C005B6AD2B21A70FB685B6A5A1CFB685A62C2
:10723C00FB681B8D013B9AB2FB681A85FB685B8D62
:10724C009BB2013B9AB2FB685A8562B600BFFB68E1
:10725C001B681A69FB685B6AD2B21A70FB685B6ABE
:10726C005A1CFB685A62FB681B8D013B9AB2FB6887
:10727C001A85FB685B8D9BB2013B9AB2FB685A8501
:10728C0042E07A6AB96BF86800F0B2FC0346002B56
:10729C0001D001234CE0FB681B681A69FB685B6A30
:1072AC00D2B21A70FB685B6A5A1CFB685A62FB68A4
:1072BC001B8D013B9AB2FB681A85FB685B8D9BB2F8
:1072CC00013B9AB2FB685A85FB681B685B6903F04B
:1072DC000403042B18D1FB681B681A69FB685B6AF2
:1072EC00D2B21A70FB685B6A5A1CFB685A62FB6864
:1072FC001B8D013B9AB2FB681A85FB685B8D9BB2B8
:10730C00013B9AB2FB685A85FB681B8D002B7FF4FE
:10731C0094AEFB68202283F83D20FB68002283F8A2
:10732C003E20FB68002283F83C20002300E002236F
:10733C0018462837BD4680BD04000100040000201B
:10734C0089B5F81480B58AB002AFF8607A603B60FA
:10735C000B467B81FDF7DCFCF8610023BB61FB680D
:10736C0093F83D30DBB2202B40F01181FB69009388
:10737C00192301228849F86800F090FA0346002B83
:10738C0001D0022304E1FB6893F83C30012B01D1BE
:10739C000223FDE0FB68012283F83C20FB681B689C
:1073AC001B6803F00103012B07D0FB681B681A68EC
:1073BC00FB681B6842F001021A60FB681B681A68C4
:1073CC00FB681B6822F400621A60FB68242283F8B5
:1073DC003D20FB6800221A64FB68704ADA62FB6885
:1073EC001B681A68FB681B6842F480721A60FB69A0
:1073FC0000933B6800224FF00111F86800F04EFA40
:10740C000346002B0DD0FB681B681B6803F48073CC
:10741C00B3F5807F03D1FB684FF400721A64032329
:10742C00B6E07B89DBB21A46FB681B6802F0FE02F1
:10743C001A61FDF76DFCF861FB681B685B6903F072
:10744C000203022B0CBF01230023DBB2FB75FB688C
:10745C001B685B6903F48063B3F5806F0CBF012379
:10746C000023DBB2BB7525E0FDF752FC0246FB693D
:10747C00D31A3A689A4202D33B68002B03D1FB68BB
:10748C00A02283F83D20FB681B685B6903F00203B4
:10749C00022B0CBF01230023DBB2FB75FB681B68BE
:1074AC005B6903F48063B3F5806F0CBF0123002389
:1074BC00DBB2BB75FB6893F83D30DBB2A02B05D07B
:1074CC00FB7D002B02D1BB7D002BCDD0FB68202295
:1074DC0083F83D20FB681B685B6903F00203022BF9
:1074EC0029D1FB681B681A68FB681B6842F40072A0
:1074FC001A6000233B61FB681B685B693B61FB689E
:10750C001B689B693B613B69FB6900931923012252
:10751C002149F86800F0C2F90346002B01D0012381
:10752C0036E0FB68202283F83D20FB68002283F8BC
:10753C003C2000232CE0FB681B681A68FB681B6866
:10754C0042F400721A60FB681B686FF480625A6127
:10755C00FB690093192301220F49F86800F09EF98A
:10756C000346002B01D0012312E0BB690133BB6140
:10757C00BA697B689A42FFF432AFFB68202283F829
:10758C003D20FB68002283F83C20012300E002230D
:10759C0018462037BD4680BD020010000000FFFFDA
:1075AC0080B588B002AFF860084611461A4603460B
:1075BC007B810B463B811346FB80FB681B681A687A
:1075CC00FB681B6842F480721A607B6A00933B6A0A
:1075DC0000224FF00111F86800F060F90346002B0F
:1075EC000DD0FB681B681B6803F48073B3F5807FB8
:1075FC0003D1FB684FF400721A6403235FE07B89AC
:10760C00DBB21A46FB681B6802F0FE021A617B6A49
:10761C003A6A2D49F86800F0BBF90346002B01D0FB
:10762C0001234CE000237B61FB681B685B697B6179
:10763C00FB681B689B697B617B697A6A396AF868AD
:10764C0000F046FA0346002B0DD0FB681B6C042B94
:10765C0007D1FB681B681A68FB681B6842F4007250
:10766C001A6001232BE0FB88012B05D13B89DAB290
:10767C00FB681B681A6121E03B891B0A9BB2DAB2DA
:10768C00FB681B681A617A6A396AF86800F020FA9C
:10769C000346002B0DD0FB681B6C042B07D1FB6839
:1076AC001B681A68FB681B6842F400721A6001239D
:1076BC0005E03B89DAB2FB681B681A6100231846A7
:1076CC001837BD4680BD00BF0200010080B588B0F0
:1076DC0002AFF860084611461A4603467B810B46FA
:1076EC003B811346FB80FB681B681A68FB681B68B0
:1076FC0042F480621A60FB681B681A68FB681B689E
:10770C0042F480721A607B6A00933B6A00224FF04D
:10771C000111F86800F0C2F80346002B0DD0FB688D
:10772C001B681B6803F48073B3F5807F03D1FB687F
:10773C004FF400721A640323AAE07B89DBB21A4669
:10774C00FB681B6802F0FE021A617B6A3A6A5249B6
:10775C00F86800F01DF90346002B01D0012397E0D7
:10776C0000237B61FB681B685B697B61FB681B68A2
:10777C009B697B617B697A6A396AF86800F0A8F9C1
:10778C000346002B0DD0FB681B6C042B07D1FB6848
:10779C001B681A68FB681B6842F400721A600123AC
:1077AC0076E0FB88012B05D13B89DAB2FB681B68BC
:1077BC001A6121E03B891B0A9BB2DAB2FB681B6899
:1077CC001A617A6A396AF86800F082F90346002B6C
:1077DC000DD0FB681B6C042B07D1FB681B681A6867
:1077EC00FB681B6842F400721A60012350E03B896D
:1077FC00DAB2FB681B681A617A6A396AF86800F0B9
:10780C0067F90346002B0DD0FB681B6C042B07D1CA
:10781C00FB681B681A68FB681B6842F400721A60EC
:10782C00012335E0FB681B681A68FB681B6842F48F
:10783C0080721A607B6A00933B6A00224FF0011140
:10784C00F86800F02BF80346002B0DD0FB681B6882
:10785C001B6803F48073B3F5807F03D1FB684FF48E
:10786C0000721A64032313E07B89DBB243F001033B
:10787C00DAB2FB681B681A617B6A3A6A0649F868D7
:10788C0000F086F80346002B01D0012300E0002312
:10789C0018461837BD4680BD0200010080B584B083
:1078AC0000AFF860B9603B601346FB7148E03B6881
:1078BC00B3F1FF3F44D0FDF72BFA0246BB69D31A54
:1078CC003A689A4202D33B68002B39D1BB681B0C37
:1078DC00DBB2012B0DD1FB681B685B69DA43BB681B
:1078EC0013409BB2002B0CBF01230023DBB21A46C2
:1078FC000CE0FB681B689B69DA43BB6813409BB2C6
:10790C00002B0CBF01230023DBB21A46FB799A42F1
:10791C0016D1FB6800221A63FB68202283F83D20F5
:10792C00FB68002283F83E20FB681B6C43F02002AE
:10793C00FB681A64FB68002283F83C20012323E0D7
:10794C00BB681B0CDBB2012B0DD1FB681B685B69A0
:10795C00DA43BB6813409BB2002B0CBF01230023FE
:10796C00DBB21A460CE0FB681B689B69DA43BB6808
:10797C0013409BB2002B0CBF01230023DBB21A4631
:10798C00FB799A4293D0002318461037BD4680BD30
:10799C0080B584B000AFF860B9607A603B6071E08C
:1079AC00FB681B685B6903F48063B3F5806F23D1BC
:1079BC00FB681B681A68FB681B6842F400721A604B
:1079CC00FB681B686FF480625A61FB6800221A63C3
:1079DC00FB68202283F83D20FB68002283F83E20C0
:1079EC00FB681B6C43F00402FB681A64FB68002202
:1079FC0083F83C20012367E07B68B3F1FF3F41D063
:107A0C00FDF786F902463B68D31A7A689A4202D38C
:107A1C007B68002B36D1BB681B0CDBB2012B0CD165
:107A2C00FB681B685B69DA43BB6813409BB2002B95
:107A3C0014BF01230023DBB20BE0FB681B689B69BE
:107A4C00DA43BB6813409BB2002B14BF0123002305
:107A5C00DBB2002B16D0FB6800221A63FB682022D5
:107A6C0083F83D20FB68002283F83E20FB681B6CEA
:107A7C0043F02002FB681A64FB68002283F83C2068
:107A8C00012321E0BB681B0CDBB2012B0CD1FB6882
:107A9C001B685B69DA43BB6813409BB2002B14BFB5
:107AAC0001230023DBB20BE0FB681B689B69DA4304
:107ABC00BB6813409BB2002B14BF01230023DBB225
:107ACC00002B7FF46DAF002318461037BD4680BDE8
:107ADC0080B584B000AFF860B9607A6034E0F868C3
:107AEC0000F0E3F80346002B01D0012334E0BB681F
:107AFC00B3F1FF3F28D0FDF70BF902467B68D31A90
:107B0C00BA689A4202D3BB68002B1DD1FB681B6874
:107B1C005B6903F08003802B16D0FB6800221A638C
:107B2C00FB68202283F83D20FB68002283F83E206E
:107B3C00FB681B6C43F02002FB681A64FB68002294
:107B4C0083F83C20012307E0FB681B685B6903F0AA
:107B5C008003802BC3D1002318461037BD4680BD4F
:107B6C0080B584B000AFF860B9607A6034E0F86832
:107B7C0000F09BF80346002B01D0012334E0BB68D6
:107B8C00B3F1FF3F28D0FDF7C3F802467B68D31A48
:107B9C00BA689A4202D3BB68002B1DD1FB681B68E4
:107BAC005B6903F00403042B16D0FB6800221A63F4
:107BBC00FB68202283F83D20FB68002283F83E20DE
:107BCC00FB681B6C43F02002FB681A64FB68002204
:107BDC0083F83C20012307E0FB681B685B6903F01A
:107BEC000403042BC3D1002318461037BD4680BDB7
:107BFC0080B584B000AFF860B9607A6049E0FB688A
:107C0C001B685B6903F01003102B19D1FB681B6810
:107C1C006FF010025A61FB6800221A63FB68202285
:107C2C0083F83D20FB68002283F83E20FB681A6C29
:107C3C00FB681A64FB68002283F83C20012330E0C7
:107C4C00FDF766F802467B68D31ABA689A4202D3EB
:107C5C00BB68002B1DD1FB681B685B6903F04003FC
:107C6C00402B16D0FB6800221A63FB68202283F895
:107C7C003D20FB68002283F83E20FB681B6C43F020
:107C8C002002FB681A64FB68002283F83C20012365
:107C9C0007E0FB681B685B6903F04003402BAED127
:107CAC00002318461037BD4680BD80B483B000AFAA
:107CBC0078607B681B685B6903F48063B3F5806F45
:107CCC001BD17B681B686FF480625A617B68002251
:107CDC001A637B68202283F83D207B68002283F89E
:107CEC003E207B681B6C43F004027B681A647B6843
:107CFC00002283F83C20012300E0002318460C37B7
:107D0C00BD4680BC7047000080B586B000AF78607F
:107D1C007B68002B01D1012372E27B681B6803F0A6
:107D2C000103002B00F08780924B5B6803F00C037F
:107D3C00042B0CD08F4B5B6803F00C03082B12D177
:107D4C008C4B5B6803F48033B3F5803F0BD1894BCC
:107D5C001B6803F40033002B6CD07B685B68002B32
:107D6C0068D101234CE27B685B68B3F5803F06D198
:107D7C00804B1B687F4A43F4803313602EE07B6892
:107D8C005B68002B0CD17B4B1B687A4A23F4803345
:107D9C001360784B1B68774A23F4802313601DE033
:107DAC007B685B68B3F5A02F0CD1724B1B68714AD2
:107DBC0043F4802313606F4B1B686E4A43F480338B
:107DCC0013600BE06B4B1B686A4A23F4803313601F
:107DDC00684B1B68674A23F4802313607B685B68DD
:107DEC00002B13D0FCF794FF386108E0FCF790FFF0
:107DFC0002463B69D31A642B01D9032300E25D4B85
:107E0C001B6803F40033002BF0D014E0FCF780FF68
:107E1C00386108E0FCF77CFF02463B69D31A642BFF
:107E2C0001D90323ECE1534B1B6803F40033002B03
:107E3C00F0D100E000BF7B681B6803F00203002B4D
:107E4C0063D04C4B5B6803F00C03002B0BD0494BFD
:107E5C005B6803F00C03082B1CD1464B5B6803F4E6
:107E6C008033002B16D1434B1B6803F00203002B0D
:107E7C0005D07B681B69012B01D00123C0E13D4B70
:107E8C001B6823F0F8027B685B69DB0039491343FC
:107E9C000B603AE07B681B69002B20D0364B01222B
:107EAC001A60FCF735FF386108E0FCF731FF024639
:107EBC003B69D31A022B01D90323A1E12D4B1B687B
:107ECC0003F00203002BF0D02A4B1B6823F0F802BE
:107EDC007B685B69DB00274913430B6015E0264B7D
:107EEC0000221A60FCF714FF386108E0FCF710FF61
:107EFC0002463B69D31A022B01D9032380E11D4BA7
:107F0C001B6803F00203002BF0D17B681B6803F0A5
:107F1C000803002B3AD07B689B69002B19D0174BB8
:107F2C0001221A60FCF7F4FE386108E0FCF7F0FE61
:107F3C0002463B69D31A022B01D9032360E10D4B96
:107F4C005B6A03F00203002BF0D0012000F0BAFAB8
:107F5C001CE00A4B00221A60FCF7DAFE38610FE0D5
:107F6C00FCF7D6FE02463B69D31A022B08D9032331
:107F7C0046E100BF00100240000042428004424231
:107F8C00924B5B6A03F00203002BE9D17B681B6800
:107F9C0003F00403002B00F0A6800023FB758B4B31
:107FAC00DB6903F08053002B0DD1884BDB69874ACA
:107FBC0043F08053D361854BDB6903F08053BB6086
:107FCC00BB680123FB75824B1B6803F48073002B89
:107FDC0018D17F4B1B687E4A43F480731360FCF707
:107FEC0097FE386108E0FCF793FE02463B69D31A12
:107FFC00642B01D9032303E1754B1B6803F48073D5
:10800C00002BF0D07B68DB68012B06D16F4B1B6A11
:10801C006E4A43F0010313622DE07B68DB68002B92
:10802C000CD16A4B1B6A694A23F001031362674B3C
:10803C001B6A664A23F0040313621CE07B68DB684E
:10804C00052B0CD1614B1B6A604A43F0040313628D
:10805C005E4B1B6A5D4A43F0010313620BE05B4B02
:10806C001B6A5A4A23F001031362584B1B6A574A86
:10807C0023F0040313627B68DB68002B15D0FCF73C
:10808C0047FE38610AE0FCF743FE02463B69D31A0F
:10809C0041F28832934201D90323B1E04B4B1B6A66
:1080AC0003F00203002BEED014E0FCF731FE386134
:1080BC000AE0FCF72DFE02463B69D31A41F28832E6
:1080CC00934201D903239BE0404B1B6A03F002034C
:1080DC00002BEED1FB7D012B05D13C4BDB693B4AE0
:1080EC0023F08053D3617B68DB69002B00F0878021
:1080FC00364B5B6803F00C03082B61D07B68DB69A3
:10810C00022B46D1334B00221A60FCF701FE38617A
:10811C0008E0FCF7FDFD02463B69D31A022B01D99E
:10812C0003236DE0294B1B6803F00073002BF0D187
:10813C007B681B6AB3F5803F08D1244B5B6823F442
:10814C0000327B689B68214913434B601F4B5B6873
:10815C0023F474127B68196A7B685B6A0B431B49B6
:10816C0013434B601B4B01221A60FCF7D1FD3861A5
:10817C0008E0FCF7CDFD02463B69D31A022B01D96E
:10818C0003233DE0114B1B6803F00073002BF0D070
:10819C0035E0104B00221A60FCF7BAFD386108E09C
:1081AC00FCF7B6FD02463B69D31A022B01D9032317
:1081BC0026E0064B1B6803F00073002BF0D11EE089
:1081CC007B68DB69012B07D1012319E00010024009
:1081DC0000700040600042420B4B5B68FB60FB6828
:1081EC0003F480327B681B6A9A4206D1FB6803F465
:1081FC0070127B685B6A9A4201D0012300E0002375
:10820C0018461837BD4680BD0010024080B584B0BA
:10821C0000AF786039607B68002B01D10123D0E07E
:10822C006A4B1B6803F007033A689A4210D9674BF4
:10823C001B6823F0070265493B6813430B60634BD3
:10824C001B6803F007033A689A4201D00123B8E097
:10825C007B681B6803F00203002B20D07B681B6833
:10826C0003F00403002B05D0594B5B68584A43F4C8
:10827C00E06353607B681B6803F00803002B05D098
:10828C00534B5B68524A43F460535360504B5B68EA
:10829C0023F0F0027B689B684D4913434B607B686D
:1082AC001B6803F00103002B40D07B685B68012B3B
:1082BC0007D1474B1B6803F40033002B15D1012366
:1082CC007FE07B685B68022B07D1414B1B6803F096
:1082DC000073002B09D1012373E03D4B1B6803F0A5
:1082EC000203002B01D101236BE0394B5B6823F0B7
:1082FC0003027B685B68364913434B60FCF708FD4F
:10830C00F8600AE0FCF704FD0246FB68D31A41F260
:10831C008832934201D9032353E02D4B5B6803F061
:10832C000C027B685B689B009A42EBD1274B1B6865
:10833C0003F007033A689A4210D2244B1B6823F0CF
:10834C00070222493B6813430B60204B1B6803F068
:10835C0007033A689A4201D0012332E07B681B681C
:10836C0003F00403002B08D0194B5B6823F4E06284
:10837C007B68DB68164913434B607B681B6803F012
:10838C000803002B09D0124B5B6823F460527B6806
:10839C001B69DB000E4913434B6000F021F80246C9
:1083AC000B4B5B681B0903F00F030A49CB5C22FAE9
:1083BC0003F3094A1360094B1B681846FCF766FC6B
:1083CC00002318461037BD4680BD00BF0020024078
:1083DC000010024058900008040000200800002003
:1083EC0080B487B000AF0023FB600023BB60002388
:1083FC007B6100237B6000233B611E4B5B68FB6051
:10840C00FB6803F00C03042B02D0082B03D027E0ED
:10841C00194B3B6127E0FB689B0C03F00F03174AD9
:10842C00D35C7B60FB6803F48033002B10D0114BC2
:10843C005B685B0C03F00103114AD35CBB607B6887
:10844C000D4A03FB02F2BB68B2FBF3F37B6104E061
:10845C007B680C4A02FB03F37B617B693B6102E0A6
:10846C00054B3B6100BF3B6918461C37BD4680BCC1
:10847C00704700BF0010024000127A007090000894
:10848C008090000800093D0080B400AF024B1B68CF
:10849C001846BD4680BC70470400002080B500AF74
:1084AC00FFF7F2FF0246054B5B681B0A03F007035C
:1084BC000349CB5C22FA03F3184680BD001002403E
:1084CC006890000880B485B000AF78600A4B1B68D8
:1084DC000A4AA2FB03235B0A7A6802FB03F3FB60E4
:1084EC0000BFFB685A1EFA60002BF9D100BF00BF19
:1084FC001437BD4680BC704704000020D34D621079
:10850C0080B586B000AF786000233B610023FB6030
:10851C007B681B6803F00103002B7DD00023FB75E7
:10852C004F4BDB6903F08053002B0DD14C4BDB69B7
:10853C004B4A43F08053D361494BDB6903F08053C2
:10854C00BB60BB680123FB75464B1B6803F480734F
:10855C00002B18D1434B1B68424A43F480731360C1
:10856C00FCF7D6FB386108E0FCF7D2FB02463B690E
:10857C00D31A642B01D903236DE03A4B1B6803F427
:10858C008073002BF0D0364B1B6A03F44073FB60F6
:10859C00FB68002B2ED07B685B6803F44073FA6891
:1085AC009A4227D02E4B1B6A23F44073FB602E4B50
:1085BC0001221A602C4B00221A60294AFB681362B4
:1085CC00FB6803F00103002B14D0FCF7A1FB38610E
:1085DC000AE0FCF79DFB02463B69D31A41F2883254
:1085EC00934201D9032336E01D4B1B6A03F00203AF
:1085FC00002BEED01A4B1B6A23F440727B685B682D
:10860C00174913430B62FB7D012B05D1144BDB691E
:10861C00134A23F08053D3617B681B6803F0020379
:10862C00002B08D00E4B5B6823F440427B689B68A0
:10863C000B4913434B607B681B6803F01003002B42
:10864C0008D0074B5B6823F480027B68DB68044925
:10865C0013434B60002318461837BD4680BD00BF3E
:10866C0000100240007000404004424280B582B0CD
:10867C0000AF78607B68002B01D101234CE07B6854
:10868C0093F83D30DBB2002B11D17B68002283F8CC
:10869C003C20786800F0D0FB7B689B6C002B02D1EF
:1086AC007B681F4A9A647B689B6C786898477B68E8
:1086BC00022283F83D207B681A687B6804331946D4
:1086CC00104600F0C1FA7B68012283F846207B68D3
:1086DC00012283F83E207B68012283F83F207B68CF
:1086EC00012283F840207B68012283F841207B68BB
:1086FC00012283F842207B68012283F843207B68A7
:10870C00012283F844207B68012283F845207B6892
:10871C00012283F83D20002318460837BD4680BD52
:10872C001148000880B485B000AF78607B6893F87E
:10873C003D30DBB2012B01D001233AE07B680222F1
:10874C0083F83D207B681B68DA687B681B6842F005
:10875C000102DA607B681B68184A93420ED07B6872
:10876C001B68B3F1804F09D07B681B68144A934295
:10877C0004D07B681B68134A934211D17B681B6839
:10878C009B6803F00703FB60FB68062B10D07B682B
:10879C001B681A687B681B6842F001021A6007E0CC
:1087AC007B681B681A687B681B6842F001021A60C0
:1087BC00002318461437BD4680BC7047002C01407E
:1087CC00000400400008004080B582B000AF786023
:1087DC007B681B681B6903F00203022B28D17B68A2
:1087EC001B68DB6803F00203022B21D17B681B683A
:1087FC006FF002021A617B6801221A777B681B6892
:10880C009B6903F00303002B05D07B68D3F89030F1
:10881C007868984709E07B68D3F89830786898476F
:10882C007B68D3F89C30786898477B6800221A776D
:10883C007B681B681B6903F00403042B28D17B683D
:10884C001B68DB6803F00403042B21D17B681B68D5
:10885C006FF004021A617B6802221A777B681B682E
:10886C009B6903F44073002B05D07B68D3F89030E0
:10887C007868984709E07B68D3F89830786898470F
:10888C007B68D3F89C30786898477B6800221A770D
:10889C007B681B681B6903F00803082B28D17B68D5
:1088AC001B68DB6803F00803082B21D17B681B686D
:1088BC006FF008021A617B6804221A777B681B68C8
:1088CC00DB6903F00303002B05D07B68D3F89030F1
:1088DC007868984709E07B68D3F8983078689847AF
:1088EC007B68D3F89C30786898477B6800221A77AD
:1088FC007B681B681B6903F01003102B28D17B6865
:10890C001B68DB6803F01003102B21D17B681B68FC
:10891C006FF010021A617B6808221A777B681B685B
:10892C00DB6903F44073002B05D07B68D3F89030DF
:10893C007868984709E07B68D3F89830786898474E
:10894C007B68D3F89C30786898477B6800221A774C
:10895C007B681B681B6903F00103012B10D17B683A
:10896C001B68DB6803F00103012B09D17B681B68D2
:10897C006FF001021A617B68D3F8803078689847F1
:10898C007B681B681B6903F08003802B10D17B680C
:10899C001B68DB6803F08003802B09D17B681B68A4
:1089AC006FF080021A617B68D3F8B0307868984712
:1089BC007B681B681B6903F04003402B10D17B685C
:1089CC001B68DB6803F04003402B09D17B681B68F4
:1089DC006FF040021A617B68D3F88830786898474A
:1089EC007B681B681B6903F02003202B10D17B686C
:1089FC001B68DB6803F02003202B09D17B681B6804
:108A0C006FF020021A617B68D3F8A8307868984719
:108A1C0000BF0837BD4680BD80B584B000AF78601C
:108A2C0039600023FB737B6893F83C30012B01D138
:108A3C000223B4E07B68012283F83C207B6802228D
:108A4C0083F83D207B681B689B68BB60BB6823F088
:108A5C007703BB60BB6823F47F43BB607B681B68F8
:108A6C00BA689A603B681B68B3F5005F3ED0B3F5FB
:108A7C00005F00F28780B3F5805F00F08680B3F56D
:108A8C00805F7FD8702B1AD0702B7BD8602B50D086
:108A9C00602B77D8502B3CD0502B73D8402B58D010
:108AAC00402B6FD8302B64D0302B6BD8202B60D060
:108ABC00202B67D8002B5CD0102B5AD062E07B683F
:108ACC0018683B6899683B685A683B68DB6800F03B
:108ADC0094F97B681B689B68BB60BB6843F07703A9
:108AEC00BB607B681B68BA689A604FE07B6818684B
:108AFC003B6899683B685A683B68DB6800F07DF915
:108B0C007B681B689A687B681B6842F480429A6099
:108B1C003CE07B6818683B6859683B68DB681A4620
:108B2C0000F0F4F87B681B685021184600F04BF9F4
:108B3C002CE07B6818683B6859683B68DB681A4610
:108B4C0000F012F97B681B686021184600F03BF9B5
:108B5C001CE07B6818683B6859683B68DB681A4600
:108B6C0000F0D4F87B681B684021184600F02BF904
:108B7C000CE07B681A683B681B681946104600F0CD
:108B8C0022F903E00123FB7300E000BF7B680122A4
:108B9C0083F83D207B68002283F83C20FB7B184641
:108BAC001037BD4680BD80B483B000AF786000BF85
:108BBC000C37BD4680BC704780B483B000AF786082
:108BCC0000BF0C37BD4680BC704780B483B000AF8B
:108BDC00786000BF0C37BD4680BC704780B483B052
:108BEC0000AF786000BF0C37BD4680BC704780B4C6
:108BFC0083B000AF786000BF0C37BD4680BC7047B7
:108C0C0080B483B000AF786000BF0C37BD4680BC29
:108C1C00704780B483B000AF786000BF0C37BD469E
:108C2C0080BC704780B483B000AF786000BF0C3755
:108C3C00BD4680BC704780B483B000AF786000BF85
:108C4C000C37BD4680BC704780B485B000AF7860EF
:108C5C0039607B681B68FB607B68294A93420BD0A8
:108C6C007B68B3F1804F07D07B68264A934203D0D0
:108C7C007B68254A934208D1FB6823F07003FB60A4
:108C8C003B685B68FA681343FB607B681C4A934241
:108C9C000BD07B68B3F1804F07D07B68194A9342A5
:108CAC0003D07B68184A934208D1FB6823F44073C5
:108CBC00FB603B68DB68FA681343FB60FB6823F0DE
:108CCC0080023B685B691343FB607B68FA681A603F
:108CDC003B689A687B68DA623B681A687B689A62C0
:108CEC007B68074A934203D13B681A697B681A6315
:108CFC007B6801225A6100BF1437BD4680BC7047A7
:108D0C00002C0140000400400008004080B487B0F3
:108D1C0000AFF860B9607A60FB681B6A7B61FB6826
:108D2C001B6A23F00102FB681A62FB689B693B61BA
:108D3C003B6923F0F0033B617B681B013A691343E9
:108D4C003B617B6923F00A037B617A69BB6813433F
:108D5C007B61FB683A699A61FB687A691A6200BFA9
:108D6C001C37BD4680BC704780B487B000AFF8603C
:108D7C00B9607A60FB681B6A7B61FB681B6A23F035
:108D8C001002FB681A62FB689B693B613B6923F428
:108D9C0070433B617B681B033A6913433B617B69FE
:108DAC0023F0A0037B61BB681B017A6913437B61D1
:108DBC00FB683A699A61FB687A691A6200BF1C37D2
:108DCC00BD4680BC704780B485B000AF7860396018
:108DDC007B689B68FB60FB6823F07003FB603A6860
:108DEC00FB68134343F00703FB607B68FA689A60E7
:108DFC0000BF1437BD4680BC704780B487B000AF4D
:108E0C00F860B9607A603B60FB689B687B617B694A
:108E1C0023F47F437B613B681A027B681A43BB686F
:108E2C0013437A6913437B61FB687A699A6000BFCC
:108E3C001C37BD4680BC704780B483B000AF7860EF
:108E4C007B681C4AC3F880207B681B4AC3F88420CB
:108E5C007B681A4AC3F888207B68194AC3F88C20AF
:108E6C007B68184AC3F890207B68174AC3F8942093
:108E7C007B68164AC3F898207B68154AC3F89C2077
:108E8C007B68144AC3F8A0207B68134AC3F8A4205B
:108E9C007B68124AC3F8A8207B68114AC3F8AC203F
:108EAC007B68104AC3F8B02000BF0C37BD4680BCAD
:108EBC00704700BF95390008B38B00081F8C000861
:108ECC00318C0008D78B0008E98B0008C58B000893
:108EDC00FB8B00080D8C0008438C0008B18F000838
:108EEC00C38F0008D58F000880B485B000AF7860C0
:108EFC0039607B6893F83C30012B01D1022346E0AA
:108F0C007B68012283F83C207B68022283F83D2099
:108F1C007B681B685B68FB607B681B689B68BB603D
:108F2C00FB6823F07003FB603B681B68FA68134313
:108F3C00FB607B681B68FA685A607B681B68164A82
:108F4C0093420ED07B681B68B3F1804F09D07B68CD
:108F5C001B68124A934204D07B681B68104A9342E8
:108F6C000CD1BB6823F08003BB603B685B68BA68BC
:108F7C001343BB607B681B68BA689A607B680122EC
:108F8C0083F83D207B68002283F83C2000231846A0
:108F9C001437BD4680BC7047002C014000040040D3
:108FAC000008004080B483B000AF786000BF0C377D
:108FBC00BD4680BC704780B483B000AF786000BF02
:108FCC000C37BD4680BC704780B483B000AF78606E
:108FDC0000BF0C37BD4680BC704703460244934229
:108FEC0000D1704703F8011BF9E7000070B50026AB
:108FFC000C4D0D4C641BA410A64209D100F01AF8BC
:10900C0000260A4D0A4C641BA410A64205D170BD63
:10901C0055F8043B98470136EEE755F8043B984762
:10902C000136F2E7849000088490000884900008D0
:10903C0088900008F8B500BFF8BC08BC9E46704785
:0C904C00F8B500BFF8BC08BC9E46704799
:1090580000000000000000000102030406070809E0
:1090680000000000010203040203040506070809C2
:0C9078000A0B0C0D0E0F1010010200007E
:049084003139000876
:049088000D39000896
:0C908C000024F4001000000001000000AF
:04000005080048594E
:00000001FF
